:100000000C9434000C946D000C946D000C946D00F5
:100010000C946D000C946D000C946D000C946D00AC
:100020000C946D000C946D000C946D000C946D009C
:100030000C946D000C946D000C946D000C946D008C
:100040000C946D000C946D000C946D000C946D007C
:100050000C946D000C946D000C946D000C946D006C
:100060000C946D000C946D0011241FBECFEFD8E0EE
:10007000DEBFCDBF0E9454000C943E00F894FFCF29
:100080009093C5008093C400E0ECF0E08081826032
:100090008083E1ECF0E0808188618083E2ECF0E035
:0800A0008081866080830895D1
:1000A80087E690E00E94400087E60E9465002FEFF7
:1000B80080E792E0215080409040E1F700C00000C6
:0200C800F3CF74
:1000CA00E0ECF0E0908195FFFDCF8093C6000895A3
:0400DA000C94000082
:00000001FF
