:100000000C943D000C9470020C9470020C946C00E3
:100010000C9470020C9470020C9470020C94700298
:100020000C9470020C9470020C9470020C94700288
:100030000C9470020C9470020C9470020C94700278
:100040000C9470020C9470020C9428020C947002B0
:100050000C9470020C9470020C9470020C94700258
:100060000C9470020C9470020100012180012101A6
:10007000310004E401310134800011241FBECFEFB0
:10008000D8E0DEBFCDBFE8E6F0E040E017C0B591B4
:10009000A59135912591059107FD0CC0959185910C
:1000A000EF01F92FE82F05900D92A217B307D9F7AA
:1000B000FE0104C01D92A217B307E1F7E937F40768
:0E00C00031F70E941A010C946500F894FFCFEE
:0900CE004E6F20646174612E0084
:1000D8001F920F920FB60F9211248F929F92AF9298
:1000E800BF92CF92DF92EF92FF920F931F932F93BD
:1000F8003F934F935F936F937F938F939F93AF93A8
:10010800BF93CF93DF93EF93FF93A12CB12CEE24F1
:10011800E394F12C63C023B186B1A80190E0B70144
:10012800002E02C0660F771F0A94E2F786239723F2
:1001380030E02C233D23822B932B892B71F041C077
:100148002F5F3F4F8FEC97E00197F1F700C0000059
:10015800213D97E0390719F420C020E030E083B151
:1001680090E08C239D23892B59F32531310548F1E3
:10017800243F314090F4440F551F440F551F4F5DE5
:100188005E4F4A018C0C9D1CF40180810E94F9018C
:10019800F40180818093320114C0440F551F440F2D
:1001A800551F4F5D5E4F4A018C0C9D1CF4018081E8
:1001B8000E94F901F401808180933201808180934B
:1001C80031010F5F1F4F0430110509F0A4CFFFEF75
:1001D800AF1ABF0A84E0A816B10459F06501E70117
:1001E8000A2C02C0CC0FDD1F0A94E2F700E010E0F1
:1001F80092CFFF91EF91DF91CF91BF91AF919F91F6
:100208008F917F916F915F914F913F912F911F91A6
:100218000F91FF90EF90DF90CF90BF90AF909F909D
:0C0228008F900F900FBE0F901F90189544
:100234000E94540283E390E00E94380214B817B875
:100244007894559A5D986FE18FE10E945F02C1E056
:10025400D0E080912001823629F40E94A3011092FB
:100264002001F7CF80912001833709F044C0109218
:10027400200138C020E030E047B1CE01022E02C098
:10028400880F991F0A94E2F7942F982797B9EFE300
:10029400FCE93197F1F700C0000097B1892787B9CD
:1002A4002F5F3F4F2430310539F780912001882397
:1002B40099F080912001813779F09091200180910B
:1002C4003201981304C080E70E94680203C082E7E9
:1002D4000E9468021092200180913101811102C0B4
:1002E4001092320180912001813721F6109232015F
:1002F40010922001AECF80913201882321F08091A9
:1003040032010E9468021092320120E030E047B1CD
:10031400CE01022E02C0880F991F0A94E2F7942F8F
:10032400982797B9EFE1FEE43197F1F700C0000098
:1003340097B1892787B92F5F3F4F2430310539F7AB
:0203440088CF60
:10034600EF92FF920F931F93CF93DF93CDB7DEB754
:1003560028970FB6F894DEBF0FBECDBF2EEC30E067
:1003660040E088E0F901DE011196742F0E944702F1
:1003760080913301811113C08E010F5F1F4F7E01E3
:1003860089E0E80EF11CF80181918F010E94680254
:10039600E016F106C1F78DE00E9468021AC08DE0F2
:1003A6000E94680280913301882381F010E0E12FDA
:1003B600F0E0EE0FFF1FE050FF4F808191810E9419
:1003C60068021F5F80913301181788F38DE00E9441
:1003D600680228960FB6F894DEBF0FBECDBFDF9138
:0C03E600CF911F910F91FF90EF900895B0
:1003F20090913301903180F4E0913301F0E090E08C
:10040200EE0FFF1FE050FF4F9183808380913301F5
:100412008F5F80933301089520E030E0F9012F5F70
:100422003F4FD901AA0FBB1FA050BF4F4D915C9106
:10043200EE0FFF1FE050FF4F518340832031310503
:0E04420069F790E090931F0180931E010895CA
:100450001F920F920FB60F9211248F938091C600B6
:10046000809320018F910F900FBE0F901F901895D1
:100470009093C5008093C400E1ECF0E0808188692E
:0E0480008083E2ECF0E0808186608083089546
:10048E00992777FD05C005900D920197E1F7089524
:0A049E0001900D920197E1F7089517
:1004A800E8E6F0E0808181608083EBE6F0E080811F
:0604B8008F6080830895AF
:1004BE0094B5936294BD95B59B6095BD87BD68BD9F
:0204CE0008958F
:1004D000E0ECF0E0908195FFFDCF8093C600089599
:0404E0000C94000078
:1004E4003738394134353642313233432A302344A4
:00000001FF
