:100000000C943D000C94A1020C94A1020C940E01DE
:100010000C94A1020C94A1020C94A1020C94A102D4
:100020000C94A1020C94A1020C94A1020C94A102C4
:100030000C94A1020C94A1020C94A1020C94A102B4
:100040000C94A1020C94A1020C9451020C94A102F4
:100050000C94A1020C94A1020C94A1020C94A10294
:100060000C94A1020C94A102010001218001210144
:100070003100054601310134800011241FBECFEF4D
:10008000D8E0DEBFCDBFE8E6F0E040E017C0B591B4
:10009000A59135912591059107FD0CC0959185910C
:1000A000EF01F92FE82F05900D92A217B307D9F7AA
:1000B000FE0104C01D92A217B307E1F7E937F40768
:0E00C00031F70E946C000C946500F894FFCF9D
:0900CE004E6F20646174612E0084
:1000D8000E947D0283E390E00E94610214B817B881
:1000E800559A5D9860E08FE10E948802C1E0D0E0F7
:1000F800789480912001823629F40E94AC011092F4
:100108002001F6CF80912001833709F050C010926A
:10011800200180912001813709F041C043C047B1D7
:10012800CE01022E02C0880F991F0A94E2F7942F7D
:10013800982797B9EFE3FCE93197F1F700C0000081
:1001480097B1892787B92F5F3F4F2430310539F799
:10015800809120018C3621F40E94310210922001F6
:1001680080912001882399F080912001813779F0CE
:100178009091200180913201981304C080E70E9479
:10018800910203C082E70E9491021092200180919F
:1001980031011092320180912001813719F020E05D
:1001A80030E0BDCF1092320110922001A1CF809192
:1001B80020018C3629F40E9431021092200198CF38
:1001C80080913201882341F080913101811104C06E
:1001D800809132010E9491021092320120E030E0B9
:1001E80047B1CE01022E02C0880F991F0A94E2F788
:1001F800942F982797B9EFE1FEE43197F1F700C003
:10020800000097B1892787B92F5F3F4F2430310508
:0402180039F76ECF75
:10021C001F920F920FB60F921124AF92BF92CF92F2
:10022C00DF92EF92FF920F931F932F933F934F9375
:10023C005F936F937F938F939F93AF93BF93CF9362
:10024C00DF93EF93FF9310923101A12CB12CCC24AE
:10025C00C394D12C52C023B186B190E0A601002EDC
:10026C0002C0440F551F0A94E2F78423952330E013
:10027C002C233D23822B932B892B71F02EC02F5FC7
:10028C003F4F8FEC97E00197F1F700C00000253F3E
:10029C0091E0390719F417C020E030E083B190E009
:1002AC008C239D23892B59F325313105B0F0223C49
:1002BC00314048F4F70180810E940202F7018081ED
:1002CC00809332010AC0F70180810E940202F7017B
:1002DC00808180933201809331010F5F1F4FF4E0D6
:1002EC00EF0EF11C0430110509F0B5CF8FEFA81AF1
:1002FC00B80A94E0A916B10471F0E6010A2C02C008
:10030C00CC0FDD1F0A94E2F7F501EF5DFE4F7F0184
:10031C0000E010E0A0CFFF91EF91DF91CF91BF9162
:10032C00AF919F918F917F916F915F914F913F9181
:10033C002F911F910F91FF90EF90DF90CF90BF9076
:0C034C00AF900F900FBE0F901F901895FF
:10035800EF92FF920F931F93CF93DF93CDB7DEB742
:1003680028970FB6F894DEBF0FBECDBF2EEC30E055
:1003780040E088E0F901DE011196742F0E947002B6
:1003880080913301811113C08E010F5F1F4F7E01D1
:1003980089E0E80EF11CF80181918F010E94910219
:1003A800E016F106C1F78DE00E9491021AC08DE0B7
:1003B8000E94910280913301882381F010E0E12F9F
:1003C800F0E0EE0FFF1FE050FF4F808191810E9407
:1003D80091021F5F80913301181788F38DE00E9406
:1003E800910228960FB6F894DEBF0FBECDBFDF91FD
:0C03F800CF911F910F91FF90EF9008959E
:1004040090913301903180F4E0913301F0E090E079
:10041400EE0FFF1FE050FF4F9183808380913301E3
:100424008F5F80933301089520E030E0F9012F5F5E
:100434003F4FD901AA0FBB1FA050BF4F4D915C91F4
:10044400EE0FFF1FE050FF4F5183408320313105F1
:0E04540069F790E090931F0180931E010895B8
:10046200F8940E949902803329F460E08FE10E949F
:10047200880214C0813329F46AE08FE10E94880265
:100482000DC0823329F464E18FE10E94880206C024
:10049200833321F46FE18FE10E94880278940895FA
:1004A2001F920F920FB60F9211248F938091C60064
:1004B200809320018F910F900FBE0F901F9018957F
:1004C2009093C5008093C400E1ECF0E080818869DC
:0E04D2008083E2ECF0E08081866080830895F4
:1004E000992777FD05C005900D920197E1F70895D2
:0A04F00001900D920197E1F70895C5
:1004FA00E8E6F0E0808181608083EBE6F0E08081CD
:06050A008F60808308955C
:1005100094B5936294BD95B59B6095BD87BD68BD4C
:0205200008953C
:10052200E0ECF0E0908195FFFDCF8093C600089546
:10053200E0ECF0E080818823ECF78091C60008951A
:040542000C94000015
:100546003738394134353642313233432A30234441
:00000001FF
