:100000000C943D000C949F020C949F020C940C01E4
:100010000C949F020C949F020C949F020C949F02DC
:100020000C949F020C949F020C949F020C949F02CC
:100030000C949F020C949F020C949F020C949F02BC
:100040000C949F020C949F020C944F020C949F02FC
:100050000C949F020C949F020C949F020C949F029C
:100060000C949F020C949F02010001218001210148
:100070003100054201310134800011241FBECFEF51
:10008000D8E0DEBFCDBFE8E6F0E040E017C0B591B4
:10009000A59135912591059107FD0CC0959185910C
:1000A000EF01F92FE82F05900D92A217B307D9F7AA
:1000B000FE0104C01D92A217B307E1F7E937F40768
:0E00C00031F70E946C000C946500F894FFCF9D
:0900CE004E6F20646174612E0084
:1000D8000E947B0283E390E00E945F0214B817B885
:1000E800559A5D9860E08FE10E948602C1E0D0E0F9
:1000F800789480912001823629F40E94AA011092F6
:100108002001F6CF80912001833709F04EC010926C
:10011800200180912001813709F03FC041C047B1DB
:10012800CE01022E02C0880F991F0A94E2F7942F7D
:10013800982797B9EFE3FCE93197F1F700C0000081
:1001480097B1892787B92F5F3F4F2430310539F799
:10015800809120018C3611F40E942F028091200199
:10016800882399F080912001813779F090912001BE
:1001780080913201981304C080E70E948F0203C067
:1001880082E70E948F021092200180913101109223
:10019800320180912001813719F020E030E0BFCF93
:1001A8001092320110922001A3CF809120018C3649
:1001B80029F40E942F02109220019ACF80913201D7
:1001C800882341F080913101811104C0809132016E
:1001D8000E948F021092320120E030E047B1CE0138
:1001E800022E02C0880F991F0A94E2F7942F9827CD
:1001F80097B9EFE1FEE43197F1F700C0000097B13D
:10020800892787B92F5F3F4F2430310539F770CFE1
:100218001F920F920FB60F921124AF92BF92CF92F6
:10022800DF92EF92FF920F931F932F933F934F9379
:100238005F936F937F938F939F93AF93BF93CF9366
:10024800DF93EF93FF9310923101A12CB12CCC24B2
:10025800C394D12C52C023B186B190E0A601002EE0
:1002680002C0440F551F0A94E2F78423952330E017
:100278002C233D23822B932B892B71F02EC02F5FCB
:100288003F4F8FEC97E00197F1F700C00000253F42
:1002980091E0390719F417C020E030E083B190E00D
:1002A8008C239D23892B59F325313105B0F0223C4D
:1002B800314048F4F70180810E940002F7018081F3
:1002C800809332010AC0F70180810E940002F70181
:1002D800808180933201809331010F5F1F4FF4E0DA
:1002E800EF0EF11C0430110509F0B5CF8FEFA81AF5
:1002F800B80A94E0A916B10471F0E6010A2C02C00C
:10030800CC0FDD1F0A94E2F7F501EF5DFE4F7F0188
:1003180000E010E0A0CFFF91EF91DF91CF91BF9166
:10032800AF919F918F917F916F915F914F913F9185
:100338002F911F910F91FF90EF90DF90CF90BF907A
:0C034800AF900F900FBE0F901F90189503
:10035400EF92FF920F931F93CF93DF93CDB7DEB746
:1003640028970FB6F894DEBF0FBECDBF2EEC30E059
:1003740040E088E0F901DE011196742F0E946E02BC
:1003840080913301811113C08E010F5F1F4F7E01D5
:1003940089E0E80EF11CF80181918F010E948F021F
:1003A400E016F106C1F78DE00E948F021AC08DE0BD
:1003B4000E948F0280913301882381F010E0E12FA5
:1003C400F0E0EE0FFF1FE050FF4F808191810E940B
:1003D4008F021F5F80913301181788F38DE00E940C
:1003E4008F0228960FB6F894DEBF0FBECDBFDF9103
:0C03F400CF911F910F91FF90EF900895A2
:1004000090913301903180F4E0913301F0E090E07D
:10041000EE0FFF1FE050FF4F9183808380913301E7
:100420008F5F80933301089520E030E0F9012F5F62
:100430003F4FD901AA0FBB1FA050BF4F4D915C91F8
:10044000EE0FFF1FE050FF4F5183408320313105F5
:0E04500069F790E090931F0180931E010895BC
:10045E00F8940E949702803329F460E08FE10E94A5
:10046E00860214C0813329F46AE08FE10E9486026D
:10047E000DC0823329F464E18FE10E94860206C02A
:10048E00833321F46FE18FE10E9486027894089500
:10049E001F920F920FB60F9211248F938091C60068
:1004AE00809320018F910F900FBE0F901F90189583
:1004BE009093C5008093C400E1ECF0E080818869E0
:0E04CE008083E2ECF0E08081866080830895F8
:1004DC00992777FD05C005900D920197E1F70895D6
:0A04EC0001900D920197E1F70895C9
:1004F600E8E6F0E0808181608083EBE6F0E08081D1
:060506008F608083089560
:10050C0094B5936294BD95B59B6095BD87BD68BD50
:02051C00089540
:10051E00E0ECF0E0908195FFFDCF8093C60008954A
:10052E00E0ECF0E080818823ECF78091C60008951E
:04053E000C94000019
:100542003738394134353642313233432A30234445
:00000001FF
